S00F000070726F6772616D2E737265631D
S11300000C9434000C9449000C9449000C9449005D
S11300100C9449000C9449000C9449000C94490038
S11300200C9449000C9449000C9449000C94490028
S11300300C9449000C9449000C9449000C94490018
S11300400C9449000C9449000C9449000C94490008
S11300500C9449000C9449000C9449000C944900F8
S11300600C9449000C94490011241FBECFEFD8E032
S1130070DEBFCDBF11E0A0E0B1E0E4ECF4E002C0EB
S113008005900D92AA30B107D9F70E9435020C945D
S113009060020C9400000E9448010895982F9295E4
S11300A09F70990F292F220F220F920F8F70890FA3
S11300B00895CF9380ED0E94510180E00E946A016F
S11300C081ED0E947E010E947401C82F0E9462018A
S11300D08C2F8F770E944E00CF910895CF9380ED9F
S11300E00E94510181E00E946A0181ED0E947E011B
S11300F00E947401C82F0E9462018C2F0E944E003E
S1130100CF910895CF9380ED0E94510182E00E9427
S11301106A0181ED0E947E010E947401C82F0E9431
S113012062018C2F8F730E944E00CF910895CF935C
S113013080ED0E94510183E00E946A0181ED0E94DA
S11301407E010E947401C82F0E9462018C2F0E94BC
S11301504E00CF910895CF9380ED0E94510184E029
S11301600E946A0181ED0E947E010E947401C82FE1
S11301700E9462018C2F0E944E00CF910895CF936C
S113018080ED0E94510185E00E946A0181ED0E9488
S11301907E010E947401C82F0E9462018C2F0E946C
S11301A04E00CF910895CF9380ED0E94510186E0D7
S11301B00E946A0181ED0E947E010E947401C82F91
S11301C00E9462018C2F0E944E00CF9108959DECF5
S11301D0899F912D112496959695969520E1929F4D
S11301E0A0011124990F292F220F220F920F891B8E
S11301F0842B08950F931F93CF93DF93D82F162F3B
S1130200042FC22F80ED0E94510180E00E946A01F8
S1130210802F0E94E7000E946A01812F0E94E7005C
S11302200E946A018D2F0E94E7008C2B0E946A01B4
S11302300E946201DF91CF911F910F9108950F9356
S11302401F93CF93DF93082F162FD42FC22F80ED47
S11302500E94510183E00E946A01802F0E94E700FE
S11302600E946A01812F0E94E7000E946A018D2F7B
S11302700E94E7000E946A018C2F0E94E7000E94FE
S11302806A010E946201DF91CF911F910F9108953D
S11302901092B9008DEF8093B80084E08093BC0085
S11302A0089594EA9093BC009091BC009923E4F7DC
S11302B08093BB0084E88093BC008091BC008823B9
S11302C0E4F7089584E98093BC008091BC0084FD28
S11302D0FCCF08958093BB0084E88093BC00809198
S11302E0BC008823E4F7089584E88093BC008091DF
S11302F0BC008823E4F78091BB00089594EA9093AE
S1130300BC009091BC009923E4F78093BB0084E87F
S11303108093BC008091BC008823E4F708958FEF9C
S113032084B987B98AB9089515B818B8843078F4AF
S113033045B190E0029621E030E0F90102C0EE0FF1
S1130340FF1F8A95E2F7CF01842B85B90EC048B10F
S113035090E0049721E030E0F90102C0EE0FFF1FA6
S11303608A95E2F7CF01842B88B9E62FF0E0E050BC
S1130370FF4F80818BB981EE94E00197F1F700C0C3
S113038000000895FF920F931F93CF93DF93262FBE
S1130390CDEC8C9F912D1124692F669566956695F9
S11303A0362F330F932F990F990F930FF82EF91AB5
S11303B02C9FD12D1124D695D695D6959D2F990F86
S11303C0892F880F880F890F022F081B4C9FC12D7E
S11303D01124C695C695C6959C2F990F892F880F11
S11303E0880F890F142F181B80E00E94940183ED5D
S11303F090E30197F1F700C000006F2D81E00E94A7
S1130400940183ED90E30197F1F700C000006D2F94
S113041082E00E94940183ED90E30197F1F700C01C
S11304200000602F83E00E94940183ED90E3019724
S1130430F1F700C000006C2F84E00E94940183ED6A
S113044090E30197F1F700C00000612F85E00E945E
S1130450940183ED90E30197F1F700C00000DF9170
S1130460CF911F910F91FF9008950E948F010E94D8
S11304704B0020E042E36BE387E10E94FA0026E1AF
S11304804CE06FE187E00E941F010E945900D82FC1
S11304900E946E00C82F0E9482004D2F6C2F0E9474
S11304A0C2010E9497000E94AB000E94BF000E94FC
S11304B0D30083EC99E00197F1F700C00000E5CF89
S10704C0F894FFCFDA
S10D04C43F065B4F666D7D077F6FF6
S9030000FC
