:100000000C943B000C9458000C9458000C9458002D
:100010000C9458000C9458000C9458000C94580000
:100020000C9458000C9458000C9458000C945800F0
:100030000C9458000C9458000C9458000C945800E0
:100040000C9458000C9458000C9458000C945800D0
:100050000C9458000C9458000C9458000C945800C0
:100060000C9458000C945800AE03B903C303CD039D
:10007000D803E303ED0311241FBECFEFD8E0DEBFAA
:10008000CDBF11E0A0E0B1E0E8E6F8E002C00590E5
:100090000D92AE30B107D9F721E0AEE0B1E001C07A
:1000A0001D92AF31B207E1F70E9412030C943204A3
:1000B0000C9400000E9457010895982F92959F700C
:1000C000990F292F220F220F920F8F70890F0895F9
:1000D000CF9380ED0E94600180E00E94790181ED64
:1000E0000E948D010E948301C82F0E9471018C2FF4
:1000F0008F770E945D00CF910895CF9380ED0E948D
:10010000600181E00E94790181ED0E948D010E94D1
:100110008301C82F0E9471018C2F0E945D00CF9136
:100120000895CF9380ED0E94600182E00E947901E2
:1001300081ED0E948D010E948301C82F0E947101F0
:100140008C2F8F730E945D00CF910895CF9380ED27
:100150000E94600183E00E94790181ED0E948D017F
:100160000E948301C82F0E9471018C2F0E945D00A4
:10017000CF910895CF9380ED0E94600184E00E94AA
:10018000790181ED0E948D010E948301C82F0E9498
:1001900071018C2F0E945D00CF910895CF9380ED67
:1001A0000E94600185E00E94790181ED0E948D012D
:1001B0000E948301C82F0E9471018C2F0E945D0054
:1001C000CF910895CF9380ED0E94600186E00E9458
:1001D000790181ED0E948D010E948301C82F0E9448
:1001E00071018C2F0E945D00CF9108959DEC899F35
:1001F000912D112496959695969520E1929FA001B8
:100200001124990F292F220F220F920F891B842B63
:1002100008950F931F93CF93DF93D82F162F042F9A
:10022000C22F80ED0E94600180E00E947901802F42
:100230000E94F6000E947901812F0E94F6000E9420
:1002400079018D2F0E94F6008C2B0E9479010E946B
:100250007101DF91CF911F910F9108950F931F931B
:10026000CF93DF93082F162FD42FC22F80ED0E943B
:10027000600183E00E947901802F0E94F6000E94B5
:100280007901812F0E94F6000E9479018D2F0E9432
:10029000F6000E9479018C2F0E94F6000E947901DD
:1002A0000E947101DF91CF911F910F9108951092DB
:1002B000B90088E48093B80084E08093BC0008957E
:1002C00094EA9093BC009091BC009923E4F780934A
:1002D000BB0084E88093BC008091BC008823E4F7D5
:1002E000089584E98093BC008091BC0084FDFCCF1C
:1002F00008958093BB0084E88093BC008091BC008B
:100300008823E4F7089584E88093BC008091BC00C2
:100310008823E4F78091BB00089594EA9093BC0091
:100320009091BC009923E4F78093BB0084E880930C
:10033000BC008091BC008823E4F7089584B18C63ED
:1003400084B987B18F6087B98FEF8AB9089595B165
:10035000937C95B998B1907F98B9843078F495B131
:10036000482F50E04E5F5F4F21E030E002C0220F87
:10037000331F4A95E2F7292B25B90EC098B1482FB3
:1003800050E04450510921E030E002C0220F331FF9
:100390004A95E2F7292B28B9E62FF0E0E050FF4F0D
:1003A00090819BB9813031F0833021F0853011F09C
:1003B000873021F48BB180688BB908958BB18F772A
:1003C0008BB90895FF920F931F93CF93DF93262F3E
:1003D000CDEC8C9F912D1124692F669566956695BD
:1003E000362F330F932F990F990F930FF82EF91A79
:1003F0002C9FD12D1124D695D695D6959D2F990F4A
:10040000892F880F880F890F022F081B4C9FC12D41
:100410001124C695C695C6959C2F990F892F880FD4
:10042000880F890F142F181B80E00E94A7018FE00E
:1004300097E20197F1F700C000006F2D81E00E9464
:10044000A7018FE097E20197F1F700C000006D2F40
:1004500082E00E94A7018FE097E20197F1F700C0C8
:100460000000602F83E00E94A7018FE097E20197D0
:10047000F1F700C000006C2F84E00E94A7018FE01C
:1004800097E20197F1F700C00000612F85E00E941C
:10049000A7018FE097E20197F1F700C00000DF911C
:1004A000CF911F910F91FF900895EF92FF920F93BC
:1004B0001F93CF93DF93362FE22ECDEC8C9F912D9F
:1004C0001124692F669566956695262F220F922F27
:1004D000990F990F920FF82EF91A3C9FD12D1124E4
:1004E000D695D695D6959D2F990F892F880F880F71
:1004F000890F032F081B4C9FC12D1124C695C6954B
:10050000C6959C2F990F892F880F880F890F142F5C
:10051000181B80E00E94A7018FE097E20197F1F796
:1005200000C000006F2D81E00E94A7018FE097E2DC
:100530000197F1F700C000006D2F82E00E94A70133
:100540008FE097E20197F1F700C00000602F83E091
:100550000E94A7018FE097E20197F1F700C0000029
:100560006C2F84E00E94A7018FE097E20197F1F7DA
:1005700000C00000612F85E00E94A7018FE097E294
:100580000197F1F700C000006E2D87E00E94A701DF
:100590008FE097E20197F1F700C00000DF91CF9163
:1005A0001F910F91FF90EF90089584B18C7F84B9D3
:1005B00085B1836085B9089583B1982F917080FDCE
:1005C00009C080910B01882329F090930B0181E0F1
:1005D00090E0089590930B0180E090E0089583B13E
:1005E000982F927081FD09C080910A01882329F01B
:1005F00090930A0181E090E0089590930A0180E0D1
:1006000090E0089593B183B1827090FD05C0882376
:1006100031F080E090E0089580E090E0089581E07E
:1006200090E008950E949E010E945A000E94D50207
:100630000E940203892B19F081E080931D018091B3
:100640001D01882321F0813009F44AC0F1CF0E94B6
:10065000DC02892B59F02FEF89EF90E02150804088
:100660009040E1F700C0000010921E010E94EF02CE
:10067000892B61F02FEF89EF90E02150804090406E
:10068000E1F700C0000081E080931E010E9491000C
:10069000C6E1D1E088830E947D0089830E946800C2
:1006A0008A830E94BA008B830E94CE008C830E94B2
:1006B000E2008D830E94A6008E8390911E0191110D
:1006C00006C04A81698188810E94E201B1CFE6E1DA
:1006D000F1E0282F4581648183810E945502A8CFD3
:1006E00080910E01882359F012C0FC01EA5EFE4F92
:1006F0002081FC01E15FFE4F2083019602C080E073
:1007000090E0873091058CF381E080930E010E9488
:10071000EF02892B91F02FEF89EF90E0215080407C
:100720009040E1F700C0000080910C0190910D0114
:10073000019690930D0180930C010E94DC02892B9D
:1007400009F455C0E0910C01F0910D01E730F1057D
:1007500008F04DC0EC5CFF4F0C942C04EFE0F1E08E
:1007600080818F5F8083883108F441C010920F012F
:100770003EC0EFE0F1E081818F5F81838C33B8F17F
:100780001092100134C0EFE0F1E082818F5F82832C
:100790008C3368F1109211012AC0EFE0F1E08381FF
:1007A0008F5F8383803218F181E0809312011FC034
:1007B000EFE0F1E084818F5F84838D30C0F081E0D1
:1007C0008093130114C0EFE0F1E085818F5F858392
:1007D000843668F0109214010AC0EFE0F1E08681DF
:1007E0008F5F8683883018F081E0809315018091B7
:1007F0000C0190910D010797C4F010921D018FEF2D
:100800009FEF90930D0180930C0110920E01CFE0A9
:10081000D1E020E04A81698188810E9409012D810F
:100820004C816B818E810E942E0180910C019091F0
:100830000D01039744F4EFE0F1E042816181808192
:100840000E94E201F5CEEFE0F1E02681458164816E
:1008500083810E945502ECCEEE0FFF1F0590F491AC
:08086000E02D0994F894FFCF8C
:0E0868003F065B4F666D7D077F6F0101FFFF4E
:00000001FF
