:100000000C9434000C9449000C9449000C94490061
:100010000C9449000C9449000C9449000C9449003C
:100020000C9449000C9449000C9449000C9449002C
:100030000C9449000C9449000C9449000C9449001C
:100040000C9449000C9449000C9449000C9449000C
:100050000C9449000C9449000C9449000C944900FC
:100060000C9449000C94490011241FBECFEFD8E036
:10007000DEBFCDBF11E0A0E0B1E0E0E8F5E002C0F6
:1000800005900D92AC30B107D9F70E947E020C9416
:10009000BE020C9400000E94D3000895982F929500
:1000A0009F70990F292F220F220F920F8F70890FA7
:1000B0000895CF9380ED0E94DC0080E00E94F5005F
:1000C00081ED0E9409010E94FF00C82F0E94ED00EF
:1000D0008C2F8F770E944E00CF910895CF9380EDA3
:1000E0000E94DC0081E00E94F50081ED0E94090180
:1000F0000E94FF00C82F0E94ED008C2F0E944E002E
:10010000CF910895CF9380ED0E94DC0082E00E94A1
:10011000F50081ED0E9409010E94FF00C82F0E9496
:10012000ED008C2F8F730E944E00CF910895CF93D6
:1001300080ED0E94DC0084E00E94F50081ED0E94C9
:1001400009010E94FF00C82F0E94ED008C2F0E9421
:100150004E00CF910895CF9380ED0E94DC0085E0A2
:100160000E94F50081ED0E9409010E94FF00C82F46
:100170000E94ED008C2F0E944E00CF910895CF93E6
:1001800080ED0E94DC0086E00E94F50081ED0E9477
:1001900009010E94FF00C82F0E94ED008C2F0E94D1
:1001A0004E00CF9108951092B90088E48093B80072
:1001B00084E08093BC00089594EA9093BC009091F1
:1001C000BC009923E4F78093BB0084E88093BC00D3
:1001D0008091BC008823E4F7089584E98093BC00F3
:1001E0008091BC0084FDFCCF08958093BB0084E81F
:1001F0008093BC008091BC008823E4F7089584E8D4
:100200008093BC008091BC008823E4F78091BB0000
:10021000089594EA9093BC009091BC009923E4F770
:100220008093BB0084E88093BC008091BC0088234D
:10023000E4F7089584B18C6384B987B18F6087B97E
:100240008FEF8AB9089595B1937C95B998B1907F55
:1002500098B9843078F495B1482F50E04E5F5F4FE5
:1002600021E030E002C0220F331F4A95E2F7292B2C
:1002700025B90EC098B1482F50E04450510921E0F3
:1002800030E002C0220F331F4A95E2F7292B28B92C
:10029000E62FF0E0E050FF4F90819BB921E08130E4
:1002A00009F020E091E0833009F090E0292B91E003
:1002B000853009F090E031E0873009F030E0922B92
:1002C00011F4332321F08BB180688BB908958BB181
:1002D0008F778BB90895FF920F931F93CF93DF937E
:1002E000262FCDEC8C9F912D1124692F6695669554
:1002F0006695362F330F932F990F990F930FF82E82
:10030000F91A2C9FD12D1124D695D695D6959D2FCF
:10031000990F892F880F880F890F022F081B4C9F78
:10032000C12D1124C695C695C6959C2F990F892F6E
:10033000880F880F890F142F181B80E00E9423015B
:100340008FE097E20197F1F700C000006F2D81E088
:100350000E9423018FE097E20197F1F700C00000AF
:100360006D2F82E00E9423018FE097E20197F1F761
:1003700000C00000602F83E00E9423018FE097E21D
:100380000197F1F700C000006C2F84E00E94230168
:100390008FE097E20197F1F700C00000612F85E040
:1003A0000E9423018FE097E20197F1F700C000005F
:1003B000DF91CF911F910F91FF900895FF920F93BE
:1003C0001F93CF93DF93262FCDEC8C9F912D11247B
:1003D000692F669566956695362F330F932F990F83
:1003E000990F930FF82EF91A2C9FD12D1124D69521
:1003F000D695D6959D2F990F892F880F880F890F35
:10040000022F081B4C9FC12D1124C695C695C69579
:100410009C2F990F892F880F880F890F142F181B75
:1004200080E00E9423018FE097E20197F1F700C07E
:1004300000006F2D81E00E9423018FE097E2019779
:10044000F1F700C000006D2F82E00E9423018FE0D1
:1004500097E20197F1F700C00000602F83E00E944F
:1004600023018FE097E20197F1F700C000006C2FA5
:1004700084E00E9423018FE097E20197F1F700C02A
:100480000000612F85E00E9423018FE097E2019731
:10049000F1F700C00000DF91CF911F910F91FF9005
:1004A000089584B18C7F84B985B1836085B908953E
:1004B00083B1982F917080FD09C080910B01882332
:1004C00029F090930B0181E090E0089590930B0147
:1004D00080E090E0089583B1982F927081FD09C06B
:1004E00080910A01882329F090930A0181E090E02D
:1004F000089590930A0180E090E008950E941A0107
:100500000E944B000E945102C0E00E945802892BB9
:1005100051F02FEF89EF90E0215080409040E1F7BB
:1005200000C00000C0E00E946B02892B51F02FEF49
:1005300089EF90E0215080409040E1F700C000003A
:10054000C1E0C1110DC00E945900182F0E946E0019
:10055000D82F0E948200412F6D2F0E946B01D5CFB2
:100560000E949700D82F0E94AB00182F0E94BF0056
:10057000482F612F8D2F0E94DE01C7CFF894FFCF47
:0C0580003F065B4F666D7D077F6F010139
:00000001FF
