:100000000C9442000C945F000C945F000C945F0011
:100010000C945F000C945F000C945F000C945F00E4
:100020000C945F000C945F000C945F000C945F00D4
:100030000C945F000C945F000C945F000C945F00C4
:100040000C945F000C945F000C945F000C945F00B4
:100050000C945F000C945F000C945F000C945F00A4
:100060000C945F000C945F002E05390544054F0584
:10007000630577058205A305A805AD05B205B7059B
:10008000BC05C10511241FBECFEFD8E0DEBFCDBF38
:1000900011E0A0E0B1E0E8EBFCE002C005900D92B9
:1000A000AE30B107D9F721E0AEE0B1E001C01D925A
:1000B000A432B207E1F70E9471040C945A060C9422
:1000C00000000E945E010895982F92959F70990FED
:1000D000292F220F220F920F8F70890F0895CF932F
:1000E00080ED0E94670180E00E94800181ED0E9406
:1000F00094010E948A01C82F0E9478018C2F8F776B
:100100000E946400CF910895CF9380ED0E94670113
:1001100081E00E94800181ED0E9494010E948A0189
:10012000C82F0E9478018C2F0E946400CF910895FF
:10013000CF9380ED0E94670182E00E94800181EDF3
:100140000E9494010E948A01C82F0E9478018C2F7E
:100150008F730E946400CF910895CF9380ED0E9429
:10016000670183E00E94800181ED0E9494010E945A
:100170008A01C82F0E9478018C2F0E946400CF91C1
:100180000895CF9380ED0E94670184E00E94800172
:1001900081ED0E9494010E948A01C82F0E9478017B
:1001A0008C2F0E946400CF910895CF9380ED0E9420
:1001B000670185E00E94800181ED0E9494010E9408
:1001C0008A01C82F0E9478018C2F0E946400CF9171
:1001D0000895CF9380ED0E94670186E00E94800120
:1001E00081ED0E9494010E948A01C82F0E9478012B
:1001F0008C2F0E946400CF9108959DEC899F912DD2
:10020000112496959695969520E1929FA001112430
:10021000990F292F220F220F920F891B842B0895EB
:100220000F931F93CF93DF93D82F162F042FC22F36
:1002300080ED0E94670180E00E948001802F0E9473
:10024000FD000E948001812F0E94FD000E9480011C
:100250008D2F0E94FD008C2B0E9480010E9478014E
:10026000DF91CF911F910F9108950F931F93CF931B
:10027000DF93082F162FD42FC22F80ED0E94670125
:1002800083E00E948001802F0E94FD000E94800177
:10029000812F0E94FD000E9480018D2F0E94FD0091
:1002A0000E9480018C2F0E94FD000E9480010E940C
:1002B0007801DF91CF911F910F9108951092B900AD
:1002C00088E48093B80084E08093BC00089594EAA9
:1002D0009093BC009091BC009923E4F78093BB00FD
:1002E00084E88093BC008091BC008823E4F70895E3
:1002F00084E98093BC008091BC0084FDFCCF08950C
:100300008093BB0084E88093BC008091BC0088236C
:10031000E4F7089584E88093BC008091BC008823B2
:10032000E4F78091BB00089594EA9093BC0090910B
:10033000BC009923E4F78093BB0084E88093BC0061
:100340008091BC008823E4F7089584B18C6384B95C
:1003500087B18F6087B98FEF8AB9089595B1937C83
:1003600095B998B1907F98B9843078F495B1482FB9
:1003700050E04E5F5F4F21E030E002C0220F331F9C
:100380004A95E2F7292B25B90EC098B1482F50E0C5
:100390004450510921E030E002C0220F331F4A953A
:1003A000E2F7292B28B9E62FF0E0E050FF4F9081CB
:1003B0009BB9813031F0833021F0853011F08730E6
:1003C00021F48BB180688BB908958BB18F778BB98D
:1003D0000895FF920F931F93CF93DF93262FCDECB9
:1003E0008C9F912D1124692F669566956695362F01
:1003F000330F932F990F990F930FF82EF91A2C9F03
:10040000D12D1124D695D695D6959D2F990F892F4C
:10041000880F880F890F022F081B4C9FC12D1124B4
:10042000C695C695C6959C2F990F892F880F880F62
:10043000890F142F181B80E00E94AE018FE097E215
:100440000197F1F700C000006F2D81E00E94AE011E
:100450008FE097E20197F1F700C000006D2F82E076
:100460000E94AE018FE097E20197F1F700C0000013
:10047000602F83E00E94AE018FE097E20197F1F7D1
:1004800000C000006C2F84E00E94AE018FE097E274
:100490000197F1F700C00000612F85E00E94AE01D6
:1004A0008FE097E20197F1F700C00000DF91CF9154
:1004B0001F910F91FF900895EF92FF920F931F935A
:1004C000CF93DF93362FE22ECDEC8C9F912D11240C
:1004D000692F669566956695262F220F922F990FA4
:1004E000990F920FF82EF91A3C9FD12D1124D69511
:1004F000D695D6959D2F990F892F880F880F890F34
:10050000032F081B4C9FC12D1124C695C695C69577
:100510009C2F990F892F880F880F890F142F181B74
:1005200080E00E94AE018FE097E20197F1F700C0F2
:1005300000006F2D81E00E94AE018FE097E20197ED
:10054000F1F700C000006D2F82E00E94AE018FE045
:1005500097E20197F1F700C00000602F83E00E944E
:10056000AE018FE097E20197F1F700C000006C2F19
:1005700084E00E94AE018FE097E20197F1F700C09E
:100580000000612F85E00E94AE018FE097E20197A5
:10059000F1F700C000006E2D87E00E94AE018FE0F1
:1005A00097E20197F1F700C00000DF91CF911F9112
:1005B0000F91FF90EF9008951F93CF93DF93262F15
:1005C000CDEC8C9F912D1124692F669566956695CB
:1005D000362F330F932F990F990F930F182F191B45
:1005E0002C9FC12D1124C695C695C6959C2F990F99
:1005F000892F880F880F890FD22FD81B80E00E9487
:10060000AE018FE097E20197F1F700C00000612F83
:1006100081E00E94AE018FE097E20197F1F700C000
:1006200000006C2F82E00E94AE018FE097E20197FC
:10063000F1F700C000006D2F83E00E94AE018FE053
:1006400097E20197F1F700C00000DF91CF911F9171
:100650000895CF93DF93D82FCDEC8C9FC12D11241B
:10066000C695C695C6956C2F80E00E94AE018FE0BE
:1006700097E20197F1F700C00000CC0F8C2F880F94
:10068000880FC80F6D2F6C1B81E00E94AE018FE0B8
:1006900097E20197F1F700C00000DF91CF91089534
:1006A000CF93DF93D82FCDEC8C9FC12D1124C6950D
:1006B000C695C6956C2F82E00E94AE018FE097E24E
:1006C0000197F1F700C00000CC0F8C2F880F880F26
:1006D000C80F6D2F6C1B83E00E94AE018FE097E284
:1006E0000197F1F700C00000DF91CF910895CF93FB
:1006F000DF93D82FCDEC8C9FC12D1124C695C695C4
:10070000C6956C2F84E00E94AE018FE097E20197BE
:10071000F1F700C00000CC0F8C2F880F880FC80F96
:100720006D2F6C1B85E00E94AE018FE097E2019770
:10073000F1F700C00000DF91CF910895CF93DF93D0
:10074000D82FCDEC8C9FC12D1124C695C695C6958A
:100750006C2F80E00E94AE018FE097E20197F1F7E5
:1007600000C00000CC0F8C2F880F880FC80F6D2F92
:100770006C1B81E00E94AE018FE097E20197F1F7D8
:1007800000C00000DF91CF910895CF93DF93D82F61
:10079000CDEC8C9FC12D1124C695C695C6956C2FA6
:1007A00082E00E94AE018FE097E20197F1F700C06E
:1007B0000000CC0F8C2F880F880FC80F6D2F6C1B7B
:1007C00083E00E94AE018FE097E20197F1F700C04D
:1007D0000000DF91CF910895CF93DF93D82FCDEC18
:1007E0008C9FC12D1124C695C695C6956C2F84E0AB
:1007F0000E94AE018FE097E20197F1F700C0000080
:10080000CC0F8C2F880F880FC80F6D2F6C1B85E0C5
:100810000E94AE018FE097E20197F1F700C000005F
:10082000DF91CF910895682F87E00E94AE018FE09D
:1008300097E20197F1F700C0000008958FEF9FEF56
:1008400090930D0180930C0110920E010895109267
:100850001E0110921D01089584B18C7F84B985B169
:10086000836085B9089583B1982F917080FD09C088
:1008700080910B01882329F090930B0181E090E097
:10088000089590930B0180E090E0089583B1982F34
:10089000927081FD09C080910A01882329F090930C
:1008A0000A0181E090E0089590930A0180E090E0D1
:1008B0000895189907C00E944604009729F081E026
:1008C00090E0089580E090E00895199907C00E9493
:1008D0003304009729F081E090E0089580E090E0F3
:1008E00008950E94A5010E9461000E942C040E94AC
:1008F0005904892B29F081E0809322010E941E0473
:100900000E946504892B29F082E0809322010E94D5
:10091000270480912201813009F44EC020F08230FA
:1009200009F434C1E4CF0E943304892B59F02FEF2E
:1009300089EF90E0215080409040E1F700C0000036
:10094000109223010E944604892B61F02FEF89EF5A
:1009500090E0215080409040E1F700C0000081E02D
:10096000809323010E949800C6E1D1E088830E9411
:10097000840089830E946F008A830E94C1008B8358
:100980000E94D5008C830E94E9008D830E94AD00F7
:100990008E8390912301911106C04A8169818881DB
:1009A0000E94E901A4CFE6E1F1E0282F45816481AE
:1009B00083810E945C029BCF80910E01882359F0B5
:1009C00012C0FC01EA5EFE4F2081FC01E15FFE4F98
:1009D0002083019602C080E090E0873091058CF37F
:1009E00081E080930E010E944604892B31F12FEFA4
:1009F00089EF90E0215080409040E1F700C0000076
:100A000080910C0190910D01019690930D018093BE
:100A10000C01079794F0109222010E941E04CFE06F
:100A2000D1E020E04A81698188810E9410012D81F6
:100A30004C816B818E810E9435010E943304892B89
:100A400009F475C0E0910C01F0910D01E730F1055A
:100A500008F06DC0EC5CFF4F0C944006EFE0F1E055
:100A6000808190E0019668E170E00E942C0680830E
:100A70005EC0EFE0F1E0818190E001966CE370E010
:100A80000E942C06818353C0EFE0F1E0828190E068
:100A900001966CE370E00E942C06828348C0EFE070
:100AA000F1E0838199E0899F212D1124982F921BD9
:100AB0009695920F92959F702FE1929F8019112425
:100AC0008F5F838334C0EFE0F1E094818BEA989FDD
:100AD000812D1124869586958695282F220F820FC9
:100AE000282F220F220F921B9F5F948320C0EFE0DC
:100AF000F1E0858190E0019664E670E00E942C06AA
:100B0000858315C0EFE0F1E0968185E2989F212D65
:100B10001124892F821B8695820F86958695282F12
:100B2000220F220F220F281B921B9F5F9683E091BA
:100B30000C01F0910D01E730F10508F0D8CEE55C2D
:100B4000FF4F0C94400680910F010E942903CFCEE5
:100B5000809110010E945003CACE809111010E9421
:100B60007703C5CE809112010E949E03C0CE809172
:100B700013010E94C503BBCE809114010E94EC03B7
:100B8000B6CE809115010E941304B1CE0E94460496
:100B9000892B99F08FEF99EF20E081509040204011
:100BA000E1F700C0000080911E0190E0019663E033
:100BB00070E00E942C0680931E010E943304892B52
:100BC000E1F080911E01882319F0813061F015C099
:100BD000EFE1F1E0808190E0019668E170E00E9431
:100BE0002C0680830AC0EFE1F1E0818190E001965C
:100BF0006CE370E00E942C068183C0911F010E946B
:100C00009800C81309C0C09120010E948400C81335
:100C100003C081E080931D01EFE1F1E061818081FB
:100C20000E94DC0280911D01811110C060CE68E03D
:100C30008C2F0E94AE018FEF91EE24E08150904006
:100C40002040E1F700C00000219602C0C0E0D0E0E3
:100C5000C830D10564F34BCE97FB072E16F40094F1
:100C600007D077FD09D00E94460607FC05D03EF468
:100C7000909581959F4F0895709561957F4F089548
:100C8000EE0FFF1F0590F491E02D0994AA1BBB1BEA
:100C900051E107C0AA1FBB1FA617B70710F0A61B7C
:100CA000B70B881F991F5A95A9F780959095BC019D
:080CB000CD010895F894FFCF77
:0E0CB8003F065B4F666D7D077F6F0101FFFFFA
:00000001FF
