:100000000C9434000C9451000C9451000C94510049
:100010000C9451000C9451000C9451000C9451001C
:100020000C9451000C9451000C9451000C9451000C
:100030000C9451000C9451000C9451000C945100FC
:100040000C9451000C9451000C9451000C945100EC
:100050000C9451000C9451000C9451000C945100DC
:100060000C9451000C94510011241FBECFEFD8E026
:10007000DEBFCDBF11E0A0E0B1E0E4EDF5E002C0ED
:1000800005900D92AC30B107D9F721E0ACE0B1E0BA
:1000900001C01D92A431B207E1F70E949A020C94AC
:1000A000E8020C9400000E94EF000895982F9295AA
:1000B0009F70990F292F220F220F920F8F70890F97
:1000C0000895CF9380ED0E94F80080E00E94110116
:1000D00081ED0E9425010E941B01C82F0E94090189
:1000E0008C2F8F770E945600CF910895CF9380ED8B
:1000F0000E94F80081E00E94110181ED0E9425011B
:100100000E941B01C82F0E9409018C2F0E945600DB
:10011000CF910895CF9380ED0E94F80082E00E9475
:10012000110181ED0E9425010E941B01C82F0E9430
:1001300009018C2F8F730E945600CF910895CF93A1
:1001400080ED0E94F80083E00E94110181ED0E9481
:1001500025010E941B01C82F0E9409018C2F0E94BB
:100160005600CF910895CF9380ED0E94F80084E06F
:100170000E94110181ED0E9425010E941B01C82FE0
:100180000E9409018C2F0E945600CF910895CF93B1
:1001900080ED0E94F80085E00E94110181ED0E942F
:1001A00025010E941B01C82F0E9409018C2F0E946B
:1001B0005600CF910895CF9380ED0E94F80086E01D
:1001C0000E94110181ED0E9425010E941B01C82F90
:1001D0000E9409018C2F0E945600CF910895109221
:1001E000B90088E48093B80084E08093BC0008954F
:1001F00094EA9093BC009091BC009923E4F780931B
:10020000BB0084E88093BC008091BC008823E4F7A5
:10021000089584E98093BC008091BC0084FDFCCFEC
:1002200008958093BB0084E88093BC008091BC005B
:100230008823E4F7089584E88093BC008091BC0093
:100240008823E4F78091BB00089594EA9093BC0062
:100250009091BC009923E4F78093BB0084E88093DD
:10026000BC008091BC008823E4F7089584B18C63BE
:1002700084B987B18F6087B98FEF8AB9089595B136
:10028000937C95B998B1907F98B9843078F495B102
:10029000482F50E04E5F5F4F21E030E002C0220F58
:1002A000331F4A95E2F7292B25B90EC098B1482F84
:1002B00050E04450510921E030E002C0220F331FCA
:1002C0004A95E2F7292B28B9E62FF0E0E050FF4FDE
:1002D00090819BB921E0813009F020E091E08330EA
:1002E00009F090E0292B91E0853009F090E031E0B1
:1002F000873009F030E0922B11F4332321F08BB1D9
:1003000080688BB908958BB18F778BB90895FF9270
:100310000F931F93CF93DF93262FCDEC8C9F912DBE
:100320001124692F669566956695362F330F932FA6
:10033000990F990F930FF82EF91A2C9FD12D112494
:10034000D695D695D6959D2F990F892F880F880F12
:10035000890F022F081B4C9FC12D1124C695C695ED
:10036000C6959C2F990F892F880F880F890F142FFE
:10037000181B80E00E943F018FE097E20197F1F7A0
:1003800000C000006F2D81E00E943F018FE097E2E6
:100390000197F1F700C000006D2F82E00E943F013D
:1003A0008FE097E20197F1F700C00000602F83E033
:1003B0000E943F018FE097E20197F1F700C0000033
:1003C0006C2F84E00E943F018FE097E20197F1F7E4
:1003D00000C00000612F85E00E943F018FE097E29E
:1003E0000197F1F700C00000DF91CF911F910F91AD
:1003F000FF900895FF920F931F93CF93DF93262FC3
:10040000CDEC8C9F912D1124692F6695669566958C
:10041000362F330F932F990F990F930FF82EF91A48
:100420002C9FD12D1124D695D695D6959D2F990F19
:10043000892F880F880F890F022F081B4C9FC12D11
:100440001124C695C695C6959C2F990F892F880FA4
:10045000880F890F142F181B80E00E943F018FE046
:1004600097E20197F1F700C000006F2D81E00E9434
:100470003F018FE097E20197F1F700C000006D2F78
:1004800082E00E943F018FE097E20197F1F700C000
:100490000000602F83E00E943F018FE097E2019708
:1004A000F1F700C000006C2F84E00E943F018FE054
:1004B00097E20197F1F700C00000612F85E00E94EC
:1004C0003F018FE097E20197F1F700C00000DF9154
:1004D000CF911F910F91FF90089584B18C7F84B9C3
:1004E00085B1836085B9089583B1982F917080FD9F
:1004F00009C080910B01882329F090930B0181E0C2
:1005000090E0089590930B0180E090E0089583B10E
:10051000982F927081FD09C080910A01882329F0EB
:1005200090930A0181E090E0089590930A0180E0A1
:1005300090E008950E9436010E9453000E946D02CF
:100540000E947402892B59F02FEF89EF90E021501F
:1005500080409040E1F700C00000109213010E941B
:100560008702892B61F02FEF89EF90E021508040C6
:100570009040E1F700C0000081E0809313010E94E9
:100580008A00CCE0D1E088830E94760089830E94B3
:1005900061008A830E94B3008B830E94C7008C8312
:1005A0000E94DB008D830E949F008E838091130147
:1005B000811106C04A81698188810E948701C0CF6C
:1005C000ECE0F1E04581648183810E94FA01B8CFBB
:0405D000F894FFCFCD
:0C05D4003F065B4F666D7D077F6F0101E5
:00000001FF
